:020000040800F2
:10000000700B002089010008050700084F06000852
:1000100001070008E5040008F718000800000000C8
:100020000000000000000000000000003511000882
:10003000E904000800000000DF0D00088D12000830
:10004000A3010008A3010008A3010008A301000800
:10005000A3010008A3010008A3010008A3010008F0
:10006000A3010008A3010008A3010008A3010008E0
:10007000A3010008A3010008A3010008A3010008D0
:10008000A3010008A3010008A3010008A3010008C0
:10009000A3010008A3010008A3010008A3010008B0
:1000A000A3010008A3010008A3010008A3010008A0
:1000B000A301000859140008A3010008A3010008C7
:1000C000A3010008A3010008A3010008A301000880
:1000D000A3010008A30100082D160008A3010008D1
:1000E000A3010008A3010008A301000800F002F822
:1000F00000F03AF80AA090E8000C82448344AAF188
:100100000107DA4501D100F02FF8AFF2090EBAE885
:100110000F0013F0010F18BFFB1A43F0010318473B
:100120004C3400006C340000103A24BF78C878C109
:10013000FAD8520724BF30C830C144BF04680C60ED
:10014000704700000023002400250026103A28BF35
:1001500078C1FBD8520728BF30C148BF0B60704739
:100160001FB51FBD10B510BD00F078F81146FFF7A0
:10017000F7FF01F097FC00F096F803B4FFF7F2FFE9
:1001800003BC01F021FC00000948804709480047F2
:10019000FEE7FEE7FEE7FEE7FEE7FEE7FEE7FEE737
:1001A000FEE7FEE704480549054A064B7047000094
:1001B00091120008ED00000870050020700B00206F
:1001C0007007002070070020704700004FF0013CCE
:1001D00050F8042B51F8043B9A4221D1A2EB0C03B6
:1001E000934313EACC1317D150F8042B51F8043B76
:1001F0009A4215D1A2EB0C03934313EACC130BD113
:1002000050F8042B51F8043B9A4209D1A2EB0C039D
:10021000934313EACC13DBD04FF00000704700BFCC
:10022000D01A01BAB1FA81F101F0180122FA01F0F5
:10023000CB40C1F12001DBB2C0B2C01A2CFA01F3ED
:10024000D11A914311EAC311E6D170477047704744
:1002500070477047004870470C0500207546FFF74F
:10026000F9FFAE4605006946534620F00700854673
:1002700018B020B5FFF796FFBDE820404FF000060C
:100280004FF000074FF000084FF0000B21F007017E
:10029000AC46ACE8C009ACE8C009ACE8C009ACE8C1
:1002A000C0098D46704710B50446AFF30080204664
:1002B000BDE81040FFF761BF21B1826842F0010242
:1002C000826003E0826822F001028260704701468A
:1002D00000208A6802F004020AB1012000E0002038
:1002E00070470146C86C80B2704702460020136810
:1002F0000B400BB1012000E00020704701460020B8
:100300008A6802F008020AB1012000E0002070476C
:1003100070B504460D462B4601222146084800F0E0
:1003200039F80121064800F096F800BF0221044880
:10033000FFF7DBFF0028F9D00148FFF7D2FF70BDBF
:100340000024014030B502460020002350680F4CC5
:1003500020400D790C6844EA0524204350609068E1
:100360000B4C2040D1E902542C434D7944EA45041A
:1003700020439060D06A20F470000C7C641EE4B2CC
:10038000234340EA0350D06230BD0000FFFEF0FF7F
:10039000FDF7F1FFF0B504460D4600200021092DC0
:1003A00011DDE068A5F10A0606EB4607072606FA06
:1003B00007F18843A5F10A0606EB460603FA06F1A3
:1003C0000843E0600CE0206905EB4507072606FAC4
:1003D00007F1884305EB450603FA06F1084320615F
:1003E000072A0FDA606B561E06EB86071F2606FAF1
:1003F00007F18843561E06EB860605FA06F1084308
:10040000606322E00D2A0FDA206BD61F06EB860709
:100410001F2606FA07F18843D61F06EB860605FA63
:1004200006F10843206310E0E06AA2F10D0606EB36
:1004300086071F2606FA07F18843A2F10D0606EB90
:10044000860605FA06F10843E062F0BD816841F0D6
:1004500008018160704721B1826842F4A002826085
:1004600003E0826822F4A00282607047816841F054
:10047000040181607047000000B585B00121480289
:1004800000F0BEFD4FF4004000F09EFD0020009003
:1004900003904FF46020029000208DF805008DF845
:1004A000040001208DF8100069460D48FFF74AFF4F
:1004B00001210B48FFF700FF0948FFF7C7FF00BF06
:1004C0000748FFF71BFF0128FAD00548FFF7CEFFCA
:1004D00000BF0348FFF7FBFE0128FAD005B000BDBE
:1004E0000024014000BFFEE7704700002DE9F047FF
:1004F0000446204602F004F907460022044B01F0AE
:10050000A7FC054601F0BEFB81464846BDE8F087E2
:1005100000C032402DE9F0410246002500260020AF
:1005200000230024002791F803C00CF00F0591F878
:1005300003C00CF0100CBCF1000F03D091F802C006
:100540004CEA050591F800C0BCF1000F31D01468E9
:1005500000202BE04FF0010C0CFA00F3B1F800C0C2
:100560000CEA03069E4220D183004FF00F0C0CFAD8
:1005700003F7BC4305FA03FC4CEA040491F803C0FA
:10058000BCF1280F06D14FF0010C0CFA00FCC2F8A8
:1005900014C00AE091F803C0BCF1480F05D14FF038
:1005A000010C0CFA00FCC2F810C0401C0828D1D382
:1005B0001460B1F800C0BCF1FF0F34DD54680020B6
:1005C0002EE000F1080C4FF0010808FA0CF3B1F826
:1005D00000C00CEA03069E4221D183004FF00F0CAD
:1005E0000CFA03F7BC4305FA03FC4CEA040491F847
:1005F00003C0BCF1280F05D100F1080C08FA0CF873
:10060000C2F8148091F803C0BCF1480F07D100F183
:10061000080C4FF0010808FA0CF8C2F81080401CD2
:100620000828CED35460BDE8F081024600209368CC
:100630000B400BB1012000E0002070474161704782
:10064000016170470AB1016100E04161704700BF7C
:10065000FEE7000010B5002440211D48FFF7E5FF2C
:1006600068B9142001F0D4F900BF40211848FFF701
:10067000DCFF0028F9D0142001F0CAF90124802100
:100680001348FFF7D2FF68B9142001F0C1F900BF89
:1006900080210F48FFF7C9FF0028F9D0142001F08E
:1006A000B7F9022420210A48FFF7BFFF68B91420D8
:1006B00001F0AEF900BF20210548FFF7B6FF002882
:1006C000F9D0142001F0A4F90324204610BD000045
:1006D0000008014008B50121042000F091FC4820E9
:1006E0008DF80300E020ADF8000003208DF8020033
:1006F00069460248FFF70EFF08BD000000080140F0
:1007000000BFFEE77047000070B5002100230F22F4
:10071000C47804B3154C246804F4E064C4F5E064C0
:10072000210AC1F10403CA40447804FA03F1847831
:100730001440214309010E4C0678A155047804F0B9
:100740001F050124AC4005786D11AD0005F1E025D1
:10075000C5F8004109E0047804F01F050124AC400D
:10076000044D0678761145F8264070BD0CED00E08A
:1007700000E400E080E100E002490143024A116028
:10078000704700000000FA050CED00E000200CE0CE
:10079000002106E00022064B03EBC0135A544A1C0A
:1007A000D1B28029F6DB421CD0B20828F0DB7047BA
:1007B0000C0100202DE9F04304460D4616461F4665
:1007C000284638E0224631E0002A2DDB7F2A2BDC48
:1007D000002829DB3F2827DC4FEAE07C00EB5C7C2B
:1007E0004FEAEC0CDFF8588008EBCC1C1CF802C078
:1007F00003464FEAE07800EB58784FEAE808A0EBB0
:10080000C8094FF0010808FA09F82CEA080C01465B
:100810004FEAE07800EB58784FEAE808DFF82090DC
:1008200009EBC81808F802C0511C0AB2A11991427C
:10083000CADC411C08B2E9198142C3DCBDE8F0837F
:100840000C01002038B5002406E0002500E06D1CF6
:10085000B5F57A7FFBD3641CB4F57A7FF5D301211B
:10086000082000F0CDFB14208DF8030003208DF844
:1008700002004FF48070ADF8000069460848FFF7A9
:1008800049FE4FF40070ADF8000069460448FFF7D8
:1008900041FE012000F064FA012000F06DFA38BD3D
:1008A000000C014070B50546002411E08021214173
:1008B000294009B1012100E00021084600F05CFA5E
:1008C000012000F04DFA002000F04AFA601CC4B28A
:1008D000082CEBDB012000F043FA002000F040FA86
:1008E00070BD10B5012000F047FA012000F038FA81
:1008F000002000F041FA002000F032FA10BD10B5DF
:10090000002000F039FA012000F02AFA012000F05E
:1009100033FA10BD10B5FFF795FFAE2000F038FA9E
:10092000D52000F035FA802000F032FAA82000F03F
:100930002FFA3F2000F02CFAD32000F029FA0020F3
:1009400000F026FA402000F023FAA12000F020FA5F
:10095000C82000F01DFADA2000F01AFA122000F088
:1009600017FA812000F014FACF2000F011FAD920F4
:1009700000F00EFAF12000F00BFADB2000F008FA8C
:10098000302000F005FAA42000F002FAA62000F0C2
:10099000FFF98D2000F0FCF9142000F0F9F9AF20E8
:1009A00000F0F6F9FFF7F2FE00F0C6F910BD10B541
:1009B0000246012000E050430B1EA1F10101FAD1D3
:1009C00010BD70B505460C4645F0B00000F0E0F9EA
:1009D000102141EA141000F0DBF904F00F0000F0E0
:1009E000D7F970BDF8B506460F4614461D46082DCA
:1009F0000CD1A4F120000E4901EB001010230822B5
:100A000039460090304600F06BF80FE0062D0DD10E
:100A1000A4F1200000EB4000064901EB4000082350
:100A2000062239460090304600F05AF8F8BD000022
:100A30002A2C00081A3200082DE9FF5F88B005460D
:100A400016461F46DDE9168A189C3046394601F0E5
:100A500057FB8146484601F080FB32463B46CDE9D4
:100A6000040101F057FD06460F4651460A20FFF7E4
:100A70009EFF8346584601F070FB32463B46CDE967
:100A8000000101F0B9FBCDE9020101F0B1F8CDE9B7
:100A9000040101F035FB07900798B0FBFBF081449F
:100AA000291908B243464A460094099900F096F87D
:100AB00008F1010101FB045108B223462E220999D5
:100AC000FFF790FF08F1020101FB045108B2534601
:100AD0000094079A099900F081F80CB0BDE8F09FE6
:100AE0002DE9FF4F80460E469146DDF834B00025D3
:100AF00000244A4631464046039BFFF75BFE00BF99
:100B00005EE0002558E008EB0500002852DB08EB0A
:100B100005007F284EDC3046F11706EB5171C910F5
:100B20000FB2F11706EB5171C910A6EBC10A002EE6
:100B300005DA781E07B20AF108000FFA80FA3819B0
:100B4000002817DB3819072814DC3819224901EB73
:100B5000C01008EB0501405C04FB09511BF80110B3
:100B600001FA0AF1084339191B4A02EBC11108EBDB
:100B7000050288543819401C00281BDB3819401C1A
:100B8000072817DC3819401C134901EBC01008EB8B
:100B90000501405C04FB09511BF80110CAF1080271
:100BA000114108433919491C0B4A02EBC11108EBEA
:100BB00005028854681CC5B24D45A4DB601CC4B254
:100BC0000399481EC11700EB5171012202EBE101AC
:100BD000A14296DCBDE8FF8F0C0100202DE9F04713
:100BE0000646894617461D46DDF82080002417E09A
:100BF000281B411E0A20FFF7DAFEB7FBF0F00A219E
:100C0000B0FBF1F201FB120000F1300A04FB0861B5
:100C100008B2434652464946FFF7E4FE601CC4B2A0
:100C2000AC42E5DBBDE8F0872DE9FE4F07468A467A
:100C3000144698460025AB46002672E0605D00F041
:100C4000800058B94FF0010B2846691C8DB2205C1A
:100C50008DF8040000208DF8050013E04FF0020B22
:100C60002846691C8DB2205C8DF80400605D00B9D7
:100C70005AE02846691C8DB2205C8DF805000020E2
:100C80008DF80600BBF1010F0BD19DF80420B919B6
:100C900008B243465146FFF7A5FE06EB080086B2B0
:100CA0003FE04FF000090EE0C9EBC90101EB810103
:100CB0001F4A881801A9FFF789FA00B90EE009F167
:100CC00001001FFA80F9C9EBC90101EB8101184A43
:100CD000881818A1FFF77AFA0028E5D100BFB8F10B
:100CE000080F12D1C9EBC90000EB8000104908447D
:100CF000C01CB919009008B210231A465146FFF7DC
:100D0000EFFE06F1100086B20BE0B8F1060F08D135
:100D1000B91908B206233F225146FFF763FEB01D02
:100D200086B2605D002889D100BFBDE8FE8F00005B
:100D3000543400080000000010B500240BE000212E
:100D40002046FFF73EFE054901EBC410802100F06C
:100D50002FF8601CC4B2082CF1DB10BD0C01002080
:100D600010B5044622464FF480710248FFF76AFC32
:100D700010BD0000000C014010B5044622464FF49F
:100D800000710248FFF75EFC10BD0000000C01403E
:100D900010B50446FFF7A5FD7820FFF783FD00207E
:100DA000FFF780FD2046FFF77DFDFFF7A8FD10BD92
:100DB00070B505460E46FFF794FD7820FFF772FDEB
:100DC0004020FFF76FFD002404E0285DFFF76AFD77
:100DD000601CC4B2B442F8DBFFF791FD70BD7047F0
:100DE00010B54FF400610248FFF728FC10BD000069
:100DF0000008014010B54FF400610248FFF720FCE5
:100E000010BD00000008014010B54FF480510248A9
:100E1000FFF714FC10BD00000008014010B54FF4AE
:100E200080510248FFF70CFC10BD00000008014093
:100E3000FEB5FFF7F3FFFFF7D3FF002454E000F007
:100E40005DFD2A49086000F059FA0546FFF74EFBA0
:100E5000274908602548006801F052FC05460B460A
:100E6000082001210222CDE9002102902A4610210A
:100E70005820FFF7E1FD1E48006801F041FC0546DF
:100E80000B46082001210222CDE9002102902A46CA
:100E900020214820FFF7D0FD082316A23021002092
:100EA000FFF7C2FEFFF748FF16491048006801F03F
:100EB00097FD01D2601CC4B20A2C0DD100F03CF9A0
:100EC000012809D1FFF7A0FF0A2094FBF0F100FBF5
:100ED0001140C4B20020FEBDFFF7BCFB032803D1C4
:100EE000FFF792FF0020F6E7A9E7000024000020AA
:100EF0002800002050756D703220576F726B696E3C
:100F0000670000000000A0403EB5FFF773FFFFF749
:100F10007BFF4AE000F0F2FC2449086000F0EEF9A3
:100F20000446FFF7E3FA224908602048006801F010
:100F3000E7FB04460B46082001210222CDE90021EF
:100F40000290224610215820FFF776FD18480068CD
:100F500001F0D6FB04460B46082001210222CDE910
:100F600000210290224620214820FFF765FD08233A
:100F700010A230210020FFF757FEFFF7DDFE0B48DF
:100F8000006801F0BDFB044600220E4B01F032FA6E
:100F900003D8FFF725FF00203EBDFFF75BFB0328CA
:100FA00003D1FFF71DFF0020F6E7B3E72400002080
:100FB0002800002050756D703120576F726B696E7C
:100FC000670000000000294001460020034A5068E5
:100FD00020F4404008435060704700000010024079
:100FE00029B1064AD2690243044BDA6104E0034A9C
:100FF000D2698243014BDA61704700000010024061
:1010000029B1064A92690243044B9A6104E0034AFB
:1010100092698243014B9A617047000000100240C0
:1010200030B500210022002400232D4D6D6805F00D
:101030000C0121B1042905D0082923D105E0294D4F
:10104000056022E0274D05601FE0254D6D6805F421
:101050007012234D6D6805F48034022505EB924231
:101060001CB9214D554305600BE01D4D6D6805F41D
:1010700000351DB11C4D5543056002E0194D554327
:10108000056002E0174D056000BF00BF144D6D689C
:1010900005F0F0010909154D6B5C0568DD40456000
:1010A0000F4D6D6805F4E061090A104D6B5C4568F1
:1010B000DD4085600A4D6D6805F46051C90A0B4D2D
:1010C0006B5C4568DD40C560054D6D6805F44041C9
:1010D000890B074D6B5CC568B5FBF3F5056130BD49
:1010E0000010024000127A0000093D0000000020BC
:1010F0001000002008B501210420FFF781FF102017
:101100008DF803004FF4C050ADF8000003208DF8B7
:10111000020069460648FFF7FDF94FF400610448F4
:10112000FFF78CFA4FF480510148FFF787FA08BDAA
:10113000000801407047000010B502210148FFF788
:1011400074FA10BD0008014008B501210420FFF722
:1011500057FF48208DF803000220ADF8000003205F
:101160008DF8020069460448FFF7D4F902210248CD
:10117000FFF766FA08BD00000008014010B500F056
:1011800001F810BD0CB500200190009033480068B4
:1011900040F480303149086000BF3048006800F4F6
:1011A000003000900198401C0190009818B90198F7
:1011B000B0F5A06FF1D12948006800F4003010B1FB
:1011C0000120009001E0002000900098012843D108
:1011D0002348006840F01000214908600846006874
:1011E00020F0030008600846006840F00200086034
:1011F0001A484068194948600846406848600846EF
:10120000406840F4806048600846406820F47C10E4
:1012100048600846406840F4E810486008460068A6
:1012200040F08070086000BF0C48006800F000705B
:101230000028F9D00948406820F0030007494860B9
:101240000846406840F00200486000BF034840681C
:1012500000F00C000828F9D10CBD0000001002407D
:1012600000200240042808D14FF0E021096941F034
:1012700004014FF0E022116107E04FF0E02109691D
:1012800021F004014FF0E022116170477047000027
:1012900010B51348006840F0010011490860084685
:1012A0004068104908400E494860084600680E49E9
:1012B00008400B4908600846006820F48020086058
:1012C0000846406820F4FE0048604FF41F00886024
:1012D000FFF754FF4FF000600449086010BD0000A4
:1012E000001002400000FFF8FFFFF6FE08ED00E0EE
:1012F00010B505210020FFF70BF810BD2DE9F04FC8
:101300008FB04FF0000A00240EE0FFF7F1FF064611
:1013100001F052FB0546514601F01EFA82460520B7
:1013200000F076FB601CC4B20A2CEEDB3749504655
:1013300001F080FA8246504601F0E2F906460022AA
:10134000334B00F085FD80464FF06632314B00F0A4
:1013500053FF044600F096FC8346584601F0D0F94E
:1013600004464FF033322C4B00F046FFCDE90A0122
:10137000584601F0C5F904460D46584601F0C0F93B
:101380008046264A264B00F037FF064622462B466B
:1013900000F032FFCDE90601584601F0B1F9804670
:1013A0008946584601F0ACF9CDE90001584601F0F4
:1013B000A7F906461B4A1C4B00F01EFF0446DDE958
:1013C000002300F019FF42464B46CDE9020100F030
:1013D00013FFCDE90401DDE9062301F0A7F8CDE90B
:1013E0000801DDE90A2300F07FFCCDE90C0100F0E3
:1013F00049FC83460D49584601F0F2FA01D24FF0FC
:10140000000B58460FB0BDE8F08F000000002041EF
:1014100000FEAF4066660A4033CB7A40EC51B81EFE
:1014200085FB5F403D0AD7A370AD50400000A0414E
:1014300008B501210420FFF7E3FD0120ADF800000D
:1014400000208DF8030069460248FFF763F8FFF7B4
:1014500013F808BD0008014010B50121064800F04E
:1014600079F840B10121044800F062F803480068AF
:10147000401C0249086010BD00040040200000200C
:1014800000B585B001210220FFF7AAFD0121082047
:10149000FFF7B6FD10208DF813000120ADF8100005
:1014A00003208DF8120004A91F48FFF733F8042029
:1014B0008DF813000220ADF8100004A91A48FFF7B8
:1014C00029F840F2E730ADF808004720ADF80400F5
:1014D0000020ADF80A00ADF8060001A9134800F09D
:1014E00053F801221146114800F045F81D208DF8EF
:1014F000000001208DF8010000208DF8020001207D
:101500008DF803006846FFF7FFF801210648FFF752
:1015100095F802210448FFF791F80021034800F0F4
:101520000AF805B000BD0000000C014000040040B6
:10153000CA430282704721B1028842F00102028050
:1015400004E002884FF6FE731A400280704701469D
:10155000888C704730B50246002000230024158A8D
:1015600005EA0103958905EA010413B10CB10120D4
:1015700000E0002030BD1AB183890B43838102E073
:1015800083898B4383817047002202881D4B9842D8
:101590000ED01D4B98420BD0B0F1804F08D01B4BA2
:1015A000984205D01A4B984202D01A4B984204D167
:1015B0004FF68F731A404B881A43174B984207D047
:1015C000164B984204D04FF6FF431A40CB881A437B
:1015D00002808B8883850B8803850A4B98420BD049
:1015E000094B984208D00E4B984205D00D4B9842BB
:1015F00002D00D4B984201D10B7A038601238382DE
:1016000070470000002C01400034014000040040FD
:1016100000080040000C0040001000400014004092
:1016200000400140004401400048014010B540F234
:1016300025511E4800F09EF820B31C4800F056F9D2
:10164000C4B21B48008800F40040D8B9184800888C
:1016500000F4804070B10A2C03D0002014490880A7
:1016600022E01348008840F400401149088000201F
:10167000088019E00D2C06D10D48008840F4804008
:101680000B49088010E00A480088C0F30D000949A2
:101690000C5407480088401C05490880084600880B
:1016A000C72801DD0020088010BD00000044004074
:1016B0001C0000204400002010B586B00446012123
:1016C0004804FFF78DFC01210420FFF799FC04205A
:1016D000ADF8140003208DF8160018208DF81700BF
:1016E00005A91C48FEF716FF0820ADF814000420D9
:1016F0008DF8170005A91748FEF70CFF26208DF876
:10170000000000208DF8010003208DF80200012068
:101710008DF803006846FEF7F7FF01940020ADF84E
:101720000800ADF80A00ADF80C00ADF810000C2070
:10173000ADF80E0001A9084800F06CF8012240F253
:101740002551054800F040F80121034800F006F853
:1017500006B010BD000801400044004021B182895C
:1017600042F40052828104E082894DF6FF731A40F0
:101770008281704770B502460024002300250020B6
:1017800040F66A16B14200D100BFC1F3421501F024
:101790001F03012606FA03F3012D02D19689334077
:1017A00006E0022D02D1168A334001E0968A3340CA
:1017B0000C12012606FA04F41688344013B10CB159
:1017C000012000E0002070BDF0B503460024002693
:1017D0000025002040F66A17B94200D100BF184624
:1017E000C1F3421401F01F06012707FA06F5012C88
:1017F00001D10C3004E0022C01D1103000E0143093
:101800001AB107682F43076002E00768AF4307601B
:10181000F0BD00002DE9F04786B005460E460024D5
:10182000A24600BFA1460027B08900B100BF2F46E5
:101830002C8A4CF6FF700440F08804432C82AC895B
:101840004EF6F3100440B08831890843718908438B
:101850000443AC81AC8A4FF6FF400440B089044396
:10186000AC8201A8FFF7DCFB1F48874202D1DDF8FC
:1018700010A001E0DDF80CA0A88900F4004040B100
:101880000AEBCA0000EB0A1031684900B0FBF1F81E
:1018900007E00AEBCA0000EB0A1031688900B0FBD0
:1018A000F1F86420B8FBF0F004012009642101FB89
:1018B0001089A88900F4004040B1322000EBC90033
:1018C000B0FBF1F000F00700044308E0322000EB29
:1018D00009106421B0FBF1F000F00F0004432C81EB
:1018E00006B0BDE8F0870000003801400146888856
:1018F000C0F30800704700BFFEE700002DE9F05F6D
:101900000024A146A34646E001202849086014208F
:1019100000F0A4F800202649C1F8800100BF022190
:101920002448FEF782FE0028F9D001212248FFF763
:1019300002FE0BF1010B00BF02211E48FEF775FEEF
:101940000128F9D000211C48FFF7F5FD1A48FFF7E0
:10195000FEFD82461949096801EB4102C2EBC11143
:101960000AEBC10000F0F9FB07460022144B00F01F
:101970006FFA054600F086F904464946204600F015
:10198000EBFE814600200C49243108800B49086099
:10199000642000F03DF8BBF1050FB5D10949484678
:1019A00000F048FF04462046BDE8F09F80812142B8
:1019B00000802142000C0140000400402000002073
:1019C00000004D400000A04000BF704710B56FF010
:1019D0000400FFF747FC0A4800680A49B0FBF1F031
:1019E000094908700846007800EB4001C1EBC010BF
:1019F0004FF6FF7101EAC0000449088010BD0000E5
:101A00003000002000127A00140000201600002090
:101A10000146114A12884A434FF0E0235A610022DE
:101A20009A611A46126942F001021A6100BF4FF032
:101A3000E022106900F001021AB100F48032002A9D
:101A4000F5D04FF0E022126922F001024FF0E023BE
:101A50001A6100229A617047160000200146104A60
:101A600012784A434FF0E0235A6100229A611A46E5
:101A7000126942F001021A6100F0010222B100F481
:101A800080320AB91A4610694FF0E022126922F03A
:101A900001024FF0E0231A6100229A6170470000B2
:101AA000140000200EB54FF4A060FEF765FEFFF7AE
:101AB0008DFF4FF4E130FFF7FFFDFFF7E1FCFEF78C
:101AC00029FFFFF7B5FCFFF715FBFEF703FEFFF755
:101AD0003BFB082334A200210846FFF7A5F80823A2
:101AE00035A210210020FFF79FF8082335A22021FE
:101AF0000020FFF799F8082335A230210020FFF7D6
:101B000093F8FFF719F94EE0FFF7F8FE3449086043
:101B1000FFF7F4FB0446FEF7E9FC32490860304861
:101B2000006800F0EDFD04460B460820012102226A
:101B3000CDE900210290224610215820FEF77CFFBB
:101B40002848006800F0DCFD04460B46082001210F
:101B50000222CDE900210290224620214820FEF7F2
:101B60006BFF08231AA230210020FFF75DF8FFF772
:101B7000E3F8FEF76FFD1C4908700846007801285D
:101B800001D1FFF7C1F918480078022801D1FFF709
:101B90004FF916491348006800F0A1FF03D2FFF780
:101BA000B3F9FFF745F9AFE72020202041717561B7
:101BB0007269756D0000000057617465724C65763E
:101BC000656C3A004748204C6576656C3A00000029
:101BD00050756D702052657374696E672000000047
:101BE00024000020280000202C000020000040419C
:101BF0002DE9F04D07460E4600F032FC04460D4636
:101C00003A46334600F086FCDFF86CA0DFF86CB093
:101C10001B4B0746884616F0004F4FF000020AD0D3
:101C200000F0AEFA0AD900225B463846414600F081
:101C3000E1FB1BD212E000F0A3FA08D200225346C7
:101C40002046294600F072FC04460D460EE00022B4
:101C50005B463846414600F0CDFB07D8002253468C
:101C60002046294600F040F804460D4631462046FD
:101C700065F31E01BDE8F08D0000F03F0000E03F7D
:101C80000000E0BF21F00042A2F16052B2F5801FD7
:101C900001F0004328BFD2F17F6C0BD95FEA001C32
:101CA00043EAC20242EB507018BF704728BF20F0D1
:101CB00001007047B2F5801FBCBF184670474FEA5D
:101CC000410C1CF5001F02D2084600F003BF70B59E
:101CD00000F03CFB00000089FFF7F6BF4FF000402A
:101CE000A0F580007047000010B591EA030F48BFCF
:101CF00083F0004300F12284841A71EB030C05D2B7
:101D0000121943EB0C03001B61EB0C01DFF824E11B
:101D10004FEA1154A4EB135C1EEA430F18BF9EEA6E
:101D2000445F73D023EA0E03DCF1200E21EA045154
:101D300043F4801332D322FA0CFE10EB0E0023FA88
:101D40000CFE41EB0E01CCF1200E03FA0EFE10EB5F
:101D50000E0051F10001B1F5801FCCF1200E32D2FE
:101D600001EB045112FA0EF2BDE8104058BF704763
:101D7000401C38BF5FEA420218BF7047002814BFFA
:101D800020F0010041F100014FEA410313F5001F6B
:101D900038BF7047A1F1C04100F026BB012A43EBD8
:101DA0000302ACF1200CDCF11F0E32BF4FF0000E2D
:101DB00023FA0CF310EB030041EB0451B4EB115F79
:101DC000D0D0A1EB045101F5801149085FEA300041
:101DD00001EB04510ED350F1000038BF12FA0EFE91
:101DE00008D1BDE81040C9E7401C38BF5FEA420295
:101DF000CAD1C3E7BDE810404FEA410313F5001F05
:101E000038BF7047A1F1C04100F0EEBA9EEA445FCE
:101E100008D011EA5E0FBDE8104004BF01F0004198
:101E200000207047BDE8104070B500F08FFA00BF89
:101E300064FBBE3E0000E0FF491058BFC1F14041C5
:101E40005B1058BFC3F140438B42EFF300807047F3
:101E50002DE9C04130B4DFF8A0C23CEA111418BF2C
:101E60003CEA131400F0EC8081EA03051CEA11142B
:101E700044EAD57418BF1CEA131500F0C780A4EB20
:101E800005044FF0004545EAC12145EAC32341EA74
:101E9000505143EA525304F17F74994204F50034DF
:101EA0004FEAC0204FEAC22208BF904200F09C8057
:101EB0004FEA13650FF24016765D4FEA134506FBB5
:101EC00005F7C7F1807706FB07F74FEAD737A7FB7F
:101ED00003687642C8F58038A7FB06CE38BFA8F164
:101EE000010807FB08E64FF0000EA6FB028CE6FB9C
:101EF00003CEDCF1000CCEF1004E38BFAEF1010E86
:101F0000A6FB0C584FF000074FF00005E6FB0E87CC
:101F1000A1FB08C6A0FB07CE16EB0E0645F1000597
:101F2000E1FB076515F1E04E7EBFA4F580345FEA62
:101F300046066D4116F1800745F100054FEA172767
:101F40004FEA066647EA0567A6F1DE46B6F1805F0E
:101F50004FEA15251FD9384624F0010C05EBC47152
:101F6000BCF1FE6F01EB0C1102D8F0BCBDE80081A2
:101F700024425CBF01F5801E9EEAC47F02D4F0BCFF
:101F8000BDE80081244238D4F0BCA1F1C041BDE8D5
:101F9000004100F029BA4FEAD22242EA43524FEA06
:101FA000D323A7FB02864FEAD02040EA415007FB2B
:101FB00003661EEA0E0F4FEAD12105FB026658BFE9
:101FC000A6EB0056B6EB00564FEA520E4EEAC37E21
:101FD00018EB0E0E56EB530EBDD518EB02085E4102
:101FE0007F1C55F10005B6E74FF480154FF0000750
:101FF0004FF000064FF00008ADE7F0BC4FF00000D6
:1020000001F1C04101F00041BDE8008111EA0C1F5F
:102010000CEA131500D00CE013EA0C1F00F0258029
:102020004FF00000F0BC81EA030101F00041BDE87F
:102030000081F0BCBDE8004181EA030100F0D4B9A1
:10204000F0BCBDE8004170B500F080F9097EFC3EAF
:1020500000F007B881EA03014FF0000001F00041F1
:10206000704781EA030100F0BFB9F0BCBDE8004150
:102070004FF0000021497047FFFDFBF9F7F5F4F23E
:10208000F0EEEDEBE9E8E6E4E3E1E0DEDDDBDAD813
:10209000D7D5D4D3D1D0CFCDCCCBCAC8C7C6C5C471
:1020A000C2C1C0BFBEBDBCBBBAB9B8B7B6B5B4B388
:1020B000B2B1B0AFAEADACABAAA9A8A8A7A6A5A473
:1020C000A3A3A2A1A09F9F9E9D9C9C9B9A99999837
:1020D0009797969595949393929191908F8F8E8EDA
:1020E0008D8C8C8B8B8A8989888887878685858467
:1020F00084838382828181800000FF070000F87F53
:102100004FEA1153A3F58063D3F11E03A8BFD3F1A7
:10211000200C08DB4FF0004242EAC12252EA505242
:1021200032FA03F0704709420BD4102BC4BF0020D1
:10213000704703F5787CBCF1FF3F05D04FF0FF30CE
:1021400070474FF00000704770B500F0FFF800BF17
:102150004992248000207047F0E7B0FA80F310FA2B
:1021600003F10AD0C3F11D0303F580634FEA415028
:102170004FEA035202EBD12170474FF00000704745
:1021800051EA030C17D41CF5801F58BFBCF5801F03
:1021900000F10680994218BF704708BF904270470F
:1021A00007D711F5801F58BF13F5801F19D4994226
:1021B0007047894270471CF5801F08D5BCF5801F09
:1021C000F7D58B4218BF704708BF824270474FF463
:1021D000001C1CEB410F38BF1CEB430F01D28B429C
:1021E000704770B500F0B2F8922449004FF00051EA
:1021F0004FF08053FFF720BEDFF848C170B51CEAEE
:10220000111E1EBF1CEA13159EEA0C0F95EA0C0F57
:1022100000F06F8081EA030423EA4C134EEAD47E77
:1022200021EA4C1141F4801143F48013AE44A1FB28
:10223000024CA0FB0365AEF17F7E361955EB0C0511
:10224000A1FB034C4CF10003A0FB021C16EB0C0697
:10225000654153F10003094218BF46F0010613F42B
:10226000007F0BD14FEA03314FEA0530340341EAD6
:10227000155140EA16506FF003020AE04FEAC321FD
:102280004FEAC520F40241EA555140EA56506FF03A
:10229000020202EB2E4201EB025585EACE710AD012
:1022A0005FEA440C18BF24F0004450F1000041F1F3
:1022B000000120EAD47040F2FE7C624500D270BD7D
:1022C000A84214BF4FF080444FF04044002E08BF96
:1022D0000024BEF1806FA8BFA1F1C041BDE87040ED
:1022E00080F282804FF0000001F1C04101F0004116
:1022F00070479EEA0C0F0CEA131518BF95EA0C0FF5
:1023000006D04FF0000081EA030E0EF0004170BDD0
:1023100000F01CF88900013E00F007B800F009B891
:102320004FEA430C5FEA5C5C08D081EA030100F0ED
:102330005BB84FEA410C5FEA5C5CF6D14FF00000FD
:10234000014970470000FF070000F87F0EF1020E00
:102350002EF0030E5EF8046B364205D4012A43EBDF
:10236000030515F5001F12D8012841EB010C1CF5DF
:10237000001F0CD80ED14FEAD17C15F5001F0CEBD5
:102380004C0C0CF1020C08BF4CEBD37C04E04FF07A
:10239000080C01E04FEAD37C0CEB4C0526FA05F65D
:1023A00006F00706B6F1040C06D20EEB860CBDE86B
:1023B00070404CF0010C6047DFE80CF0090B0202A2
:1023C0004FF000414FF00000A1F5002170BD19460B
:1023D0001046012851EB010418BFD4F5001484BF46
:1023E000002001F0004170BD0808A0F500114FEA7F
:1023F0003101704753EA010C17D41CF5801F58BFF8
:10240000BCF5801F00F106808B4218BF704708BFE3
:102410008242704707D713F5801F58BF11F5801F00
:1024200019D48B4270479B4270471CF5801F08D51A
:10243000BCF5801FF7D5994218BF704708BF90427E
:1024400070474FF4001C1CEB430F38BF1CEB410FCF
:1024500001D2994270470FB40CBC03BCFFF7C1BE58
:102460005FEA410C5FEA5C5CACF580635B1C39D4CD
:10247000D3F1340240F34580B2F1200314DA4FF077
:10248000010C0CFA02FCACF101030340B3EB5C025B
:1024900020EA030008BF10EA0C0F98BF704710EB4A
:1024A0000C0041F1000170470AD0C3F1200201FA8B
:1024B00002FC012821FA03F101FA03F14CF10000BA
:1024C0004FF0010C0CFA03FCACF10103B0F1004F2A
:1024D00021EA030108BF11EA0C0F4FF0000088BF8A
:1024E00061447047B3F1FF3F28BF50EAC12C01F0AF
:1024F00000414FF0000084BF41F07C5141F4700175
:102500007047B3F5806FB8BF704770B5FFF71EFF17
:1025100040DBB6BE91EA030F10B581F000413FF5F4
:10252000EBAB83F0004300F009B8000010B591EA6E
:10253000030F48BF83F000433FF5DEAB841A71EB15
:10254000030C07D212198CF0004C43EB0C03001B58
:1025500061EB0C01DFF8A4E14FEA1154A4EB135C2A
:102560001EEA430F18BF9EEA445F00F0B08023EAE2
:102570006E03524221EA0451C3EB6E0338BF5B1E67
:10258000DCF1200E25D322FA0CFE10EB0E0043FAEC
:102590000CFE41EB0E01CCF1200E03FA0EFE10EB07
:1025A0000E0051F10001CCF1200E29D412FA0EF2E6
:1025B00001EB0451BDE8104058BF7047401C1CBFE0
:1025C000B2F1004F704700280CBF491C20F00100F9
:1025D000704712EB020E43EB030218BF4FF0010EDF
:1025E0004EEA4202ACF1200CDCF11E0E54D943FA43
:1025F0000CFE10EB0E0051F1FF31CCF11E0ED5D5C3
:102600000EF1010E12FA0EFE404141EB010101EB09
:10261000445C5FEA5C5C10D910EBDE7001EB0451A6
:1026200038BFBEF1004FBDE8104018BF704700280A
:102630000CBF491C20F00100704730D24FEAD42C67
:1026400011F5001124F400641BD0B1FA81F20B3AA9
:10265000A41AA41ED2F12003914030FA03F31943C7
:10266000904001EBCC71002C01EB0451BDE810400F
:10267000A8BF704701F1C0414FF0000001F00041D8
:102680007047B0FA80F310FA03F100D110BDE41ADC
:10269000173C4805C90AE4E701EB045110BD491095
:1026A00001EB0451BDE810404FEA300002E04FF06A
:1026B000000170474A0008BF0042F8D0B2F5001F81
:1026C00028BF704701F000414FF0000070479EEABC
:1026D000445F07D011EA5E0FBDE8104004BF00213F
:1026E00000207047BDE8104070B5FFF72FFE00BF17
:1026F00040DFF63E83F00041104670470000E0FFE7
:1027000043004FEAD30C4FEA3C0C43401FBF400745
:102710000CF1605113F0FE4F70471CF0006F03D1B5
:1027200000200CF0004170470CF0004343EA507069
:1027300010B540EACC0000F087F900BF000000921D
:102740004FEA0001FFF750BE4FF000414FF000008C
:10275000A1F500217047000090EA010F48BF81F009
:10276000004100F1F481421A3CBF801A89184FEAF7
:10277000D0524FF07F4C1CEA410FA2EBD15318BF4F
:102780009CEA026F00F03B804FF0004C4CEA0020C6
:102790004CEA012121FA03FC10EB0C0C1ED202F1D1
:1027A000FF325FEA1C2040EBC25038BF70471CF07C
:1027B0007F0F4FEA400C18BFBCF17F4F38BF704706
:1027C000C3F12003994008BF20F00100BCF17F4F06
:1027D00038BF7047A0F1C04000F07CB94FEA3C0020
:1027E000000A40EBC25028BF1CF0FF0F4FEA400C1C
:1027F000E6D018BFBCF17F4F38BF7047EAE79CEACC
:10280000026F05D010EA5C0F08BF00F0004070476F
:1028100010B500F019F900BF64FBBE3E401058BF70
:10282000C0F14040491058BFC1F140418142EFF32F
:10283000008070474FF47F0C1CEAD0121EBF1CEAC8
:10284000D11392EA0C0F93EA0C0F00F0858090EA06
:10285000010F48BF42F4807240F4000C41F40000C4
:102860002CF07F4120F07F4000B58142A2EB0302B3
:102870000FF2081CACEB504EC0F100009EF800E0D7
:102880004FEA4E0E00FB0EFC38BF49004FEA2C1CED
:1028900002F5FA020CFB0EF34FEACE1E4FEA112CA2
:1028A0004FEAC1210EEB635E42EB22420EFB0CFCB1
:1028B0004FEA1C5300FB03114FEA112C4FEA013180
:1028C0000EFB0CFC4FEADC4C00FB0C11C14228BF94
:1028D00009184CEB03335DF804EB10EB410143EBBB
:1028E000C250B2F57C0F38BF704729D512F0F00FF7
:1028F0001CBF00F1C04000F000407047008182839F
:102900008485868788898B8C8D8E8F9192939596FE
:1029100097999A9C9D9FA0A2A3A5A7A8AAACAEB088
:10292000B2B3B5B7B9BCBEC0C2C5C7C9CCCED1D48D
:10293000D7D9DCDFE2E6E9ECF0F3F7FAFE000000BD
:102940004FEA400C0CF1807CBCF17E4F28BF7047F1
:10295000B0F1C04000F0BEB890EA010F0CEAD1130C
:1029600048BF42F48072624538BF634507D213F412
:102970007F0F16D080EA010000F00040704710B5CC
:1029800000F062F8097EFC3E00F005B880EA010024
:1029900000F00040704780EA010000F0004000F0C5
:1029A00099B812F47F0F04BF0248704780EA010013
:1029B00000F090B80000C07FB0FA80F310FA03F284
:1029C000C3F19D030AD0D90501EB1220530638BF8D
:1029D000704700F1010008BF20F0010070470000BF
:1029E00050EA010C00F113801CF5000F58BFBCF534
:1029F000000F01D48842704707D710F5000F58BF69
:102A000011F5000F15D488427047894270471CF5B4
:102A1000000F04D5BCF5000FF7D5814270474FF089
:102A2000807C1CEB400F38BF1CEB410F01D2814270
:102A3000704710B500F008F8922449004FF000509C
:102A40004FF08051FFF7EABE0EF1020E2EF0030E9A
:102A50005EF8044B244204D44FEA4102B2F17F4FA6
:102A600011D84FEA4003B3F17F4F0CD80ED14FEA93
:102A7000D07CB2F17F4F0CEB4C0C0CF1020C08BF78
:102A80004CEBD17C04E04FF0080C01E04FEAD17C24
:102A90000CEB4C0324FA03F404F00704B4F1040C27
:102AA00006D20EEB840CBDE810404CF0010C6047E0
:102AB000DFE80CF0070802024FF00040A0F58000AC
:102AC00010BD0846420018BFD2F1807288BF00F0E6
:102AD000004010BDFF2141EAD050C005704751EAC7
:102AE000000C00F113801CF5000F58BFBCF5000F5F
:102AF00001D48142704707D711F5000F58BF10F578
:102B0000000F15D481427047894270471CF5000FB1
:102B100004D5BCF5000FF7D5884270474FF0807C94
:102B20001CEB410F38BF1CEB400F01D288427047AD
:102B300080EA010081EA000180EA0100FFF779BF25
:102B400090EA010F48BF81F000413FF50CAE421AF8
:102B500004D882F00042A0EB020011444FEAD052A8
:102B60004FF07F4C1CEA410FA2EBD15318BF9CEAF7
:102B7000026F4AD04FF0004C4CEA00204CEA012191
:102B800021FA03FCB0EB0C0C0FD412F0FE0F36D080
:102B90005FEA4C001DD5001240EBC25038BF7047B1
:102BA0001CF03F0F18BF70470BE0A2F101025FEA73
:102BB0001C2040EBC25038BF70471CF07F0F18BF7D
:102BC0007047C3F12003994014BF401E20F001005C
:102BD000704780084FEA122308BF7047B0FA80FCA4
:102BE000A2EB0C02CCF1280C60FA0CF093EA122F45
:102BF00004BF00EBC25070474FEAC3707047130A1E
:102C00005FEADC1008BF7047F6E79CEA026F04D069
:102C100010EA5C0F08BF0020704710B5FFF714FFE3
:102C200040DFF63E81F000407047000000000000E9
:102C300000000000000000000000000000F800009C
:102C40000000000000333000000000160E00160ED9
:102C50000000000000000000000040C07840C07884
:102C60004000043F04043F040400007088FC083066
:102C70000000001820FF211E0000F008F000E018FE
:102C8000000000211C031E211E0000F008887000B7
:102C900000001E21232419272110000000160E0019
:102CA00000000000000000000000000000E0180428
:102CB0000200000000071820400000020418E00095
:102CC00000000040201807000000404080F08040D5
:102CD00040000202010F01020200000000F00000AB
:102CE00000000101011F01010100000000000000BF
:102CF000000000B0700000000000000000000000B4
:102D000000000001010101010101000000000000BC
:102D10000000003030000000000000000000806073
:102D20001804006018060100000000E010080810F8
:102D3000E000000F102020100F00001010F800001D
:102D400000000020203F20200000007008080888B4
:102D50007000003028242221300000300888884884
:102D600030000018202020110E000000C02010F8B4
:102D7000000000070424243F240000F80888880885
:102D800008000019212020110E0000E0108888188A
:102D90000000000F112020110E0000380808C8386C
:102DA00008000000003F000000000070880808884C
:102DB0007000001C222121221C0000E010080810D5
:102DC000E0000000312222110F00000000C0C0000E
:102DD00000000000003030000000000000C0C00013
:102DE0000000000080B07000000000008040201053
:102DF000080000010204081020004040404040400C
:102E0000400004040404040404000008102040806E
:102E100000000020100804020100007048080808A3
:102E2000F0000000003036010000C030C828E81073
:102E3000E0000718272423140B000000C038E0002E
:102E40000000203C23020227382008F88888887078
:102E50000000203F202020110E00C0300808080884
:102E60003800071820202010080008F8080808106B
:102E7000E000203F202020100F0008F88888E80894
:102E80001000203F20202320180008F88888E80838
:102E90001000203F200003000000C0300808083860
:102EA000000007182020221E020008F80800000871
:102EB000F808203F210101213F20000808F80808F8
:102EC00000000020203F2020000000000808F80833
:102ED0000800C08080807F00000008F888C02818A3
:102EE0000800203F20012638200008F808000000D4
:102EF0000000203F20202020300008F8F800F8F8DB
:102F00000800203F003F003F200008F830C00008C4
:102F1000F808203F200007183F00E01008080810BC
:102F2000E0000F10202020100F0008F80808080803
:102F3000F000203F210101010000E0100808081006
:102F4000E0000F18242438504F0008F8888888883B
:102F50007000203F2000030C302000708808080813
:102F600038000038202121221C00180808F8080821
:102F700018000000203F2000000008F808000008AA
:102F8000F808001F202020201F000878880000C8B3
:102F90003808000007380E010000F80800F80008A3
:102FA000F800033C0700073C0300081868808068AD
:102FB000180820302C03032C30200838C800C838EB
:102FC00008000000203F2000000010080808C83852
:102FD00008002038262120201800000000FE0202F0
:102FE00002000000007F40404000000C30C00000A4
:102FF0000000000000010638C00000020202FE00CE
:103000000000004040407F0000000020100804083D
:103010001020000000000000000000000000000080
:103020000000808080808080808000020408000092
:103030000000000000000000000000008080808090
:1030400000000019242222223F2008F8008080007E
:103050000000003F112020110E0000000080808041
:103060000000000E11202020110000000080808848
:10307000F800000E112020103F200000808080808A
:103080000000001F222222221300008080F0888886
:1030900088180020203F20200000000080808080D1
:1030A0008000006B94949493600008F80080808006
:1030B0000000203F210000203F2000809898000061
:1030C00000000020203F2020000000000080989891
:1030D000000000C08080807F000008F80000808031
:1030E0008000203F24022D302000000808F8000056
:1030F00000000020203F2020000080808080808011
:103100008000203F20003F20003F00808000808022
:10311000000000203F2100203F20000080808080B0
:103120000000001F202020201F00808000808000E1
:10313000000080FFA12020110E0000000080808090
:103140008000000E112020A0FF8080808000808001
:10315000800020203F21200001000000808080802E
:1031600080000033242424241900008080E0808023
:1031700000000000001F2020000080800000008070
:103180008000001F202020103F20808080000080D1
:10319000808000010E3008060100808000800080E1
:1031A00080800F300C030C300F0000808000808086
:1031B00080000020312E0E312000808080000080B1
:1031C000808080818E701806010000808080808061
:1031D00080000021302C2221300000000000807C83
:1031E000020200000000003F404000000000FF001D
:1031F000000000000000FF0000000002027C8000D0
:1032000000000040403F000000000080404080007F
:10321000008000000000000101000000000000002C
:103220000000002F000000000700070000147F14BA
:103230007F1400242A7F2A120023130864620036B8
:103240004955225000000007000000001C224100E8
:10325000000041221C000014083E08140008083E2B
:103260000808000000A06000000808080808000026
:1032700060600000002010080402003E5149453EF5
:103280000000427F40000042615149460021414513
:103290004B31001814127F10002745454539003C7A
:1032A0004A49493000017109050300364949493648
:1032B00000064949291E0000363600000000563637
:1032C000000000081422410000141414141400001B
:1032D00041221408000201510906003E4955592EA9
:1032E000007C1211127C007F49494936003E414161
:1032F0004122007F4141221C007F49494941007F12
:1033000009090901003E4149497A007F0808087F00
:103310000000417F4100002040413F01007F081430
:103320002241007F40404040007F020C027F007F2E
:103330000408107F003E4141413E007F0909090613
:10334000003E4151215E007F091929460046494946
:1033500049310001017F0101003F4040403F001F13
:103360002040201F003F4038403F00631408146392
:1033700000070870080700615149454300007F417C
:103380004100000204081020000041417F000004B9
:1033900002010204004040404040000001020400DD
:1033A000002054545478007F484444380038444442
:1033B000442000384444487F0038545454180008CE
:1033C0007E0901020018A4A4A47C007F08040478EC
:1033D0000000447D4000004080847D00007F102874
:1033E00044000000417F4000007C04180478007C09
:1033F0000804047800384444443800FC2424241889
:103400000018242418FC007C0804040800485454C4
:10341000542000043F444020003C4040207C001CDD
:103420002040201C003C4030403C004428102844F0
:10343000001CA0A0A07C004464544C440000087F01
:1034400041000000007F00000000417F08000008EC
:1034500004081008A3AC00000000000000000000F9
:1034600000000000000000000058380000000000CC
:1034700000000000000000A1A30000000000000008
:1034800000000000000000000000000018242418C4
:1034900000000000000000000000C4E300008060A5
:1034A000F8074020180F08C8080828180001000075
:1034B000FF00100C0340807F0001061800BAC30013
:1034C0001010F01F10F000808282E2928A86800045
:1034D000402215081661000040807F0000000000B7
:1034E000CAC000202020FE2020FF202020FF202016
:1034F0002020000000007F404047444444474040B3
:10350000400000BDE700000000FE929292FE929201
:1035100092FE0000000008080484621E010001FE03
:10352000020404080800000000FF0101013109093C
:103530000909897101010101FFFF8080808080807D
:103540009681808080808080FFFF01818181FD895C
:1035500091A1C1FD81818101FFFF808080809F88D2
:103560008482819F80808080FF0000008C3500086D
:10357000000000204400000028010008D0350008A9
:10358000440000202C0B0000440100080000000053
:1035900001020304010203040607080902040608E5
:1035A000000000000000000000000000000000001B
:1035B00000000000000000000000000000A24A041B
:1035C00000000000000000000102030406070809D3
:040000050800018965
:00000001FF
